:100000000A128A110C280134FE00030EF0000A08BF
:10001000F1000A168A11162E0A128A110F2883136C
:10002000C230FD001530FE007830FF00A0308400A3
:100030000A168A111E250A128A110A128A11032031
:100040000A128A11FB0083160313C701C801831229
:100050000313E001E101E201E301E401E501E6014E
:10006000E701E801E901EA01EB01EC01ED01F90129
:10007000FA0183010A128A157A2C83120313DF0016
:100080000A168A1192260A128A1112308316031355
:100090004906031D4C284D28E7290A168A110D250B
:1000A0000A128A114D30F6009130F7008030F800C6
:1000B0000A168A11E7250A128A117A088312031395
:1000C000D8005807A03E840083130008F600840A75
:1000D00000088403F7008630F8000A168A11E72525
:1000E0000A128A116830F6009130F700C030F8002B
:1000F0000A168A11E7250A128A11C630F8000A305A
:10010000F2000030F300831203136A08D800D9010B
:100110005808F4005908F5000A168A119B270A129C
:100120008A117208303E0A168A112D250A128A1188
:10013000C730F8000A30F2000030F30083120313D6
:100140006A08D800D9015808F4005908F5000A16C1
:100150008A11E8260A128A117208303E0A168A119C
:100160002D250A128A11C830F8003A300A168A1171
:100170002D250A128A11C930F8000A30F200003029
:10018000F300831203136B08D800D9015808F40058
:100190005908F5000A168A119B270A128A1172085B
:1001A000303E0A168A112D250A128A11CA30F8002B
:1001B0000A30F2000030F300831203136B08D800FA
:1001C000D9015808F4005908F5000A168A11E826E2
:1001D0000A128A117208303E0A168A112D250A1257
:1001E0008A114530F6009130F7009530F8000A1674
:1001F0008A11E7250A128A11333083120313DA00B9
:10020000BB30D900DF30D800D80B0429D90B042922
:10021000DA0B04290A168A110D250A128A11DF3019
:10022000F6009030F7008030F8000A168A11E725B2
:100230000A128A118030F6009130F700C030F800C1
:100240000A168A11E7250A128A114430F600903006
:10025000F700D030F8000A168A11E7250A128A1131
:10026000831203136A08D800D9015808F20059080C
:10027000F3003C30F4000030F5000A128A11DB274D
:100280000A128A11831203136B087207E20000300E
:10029000031801307307E3006308E1006208E0001F
:1002A0006208F2006308F3000030F31BFF30F40033
:1002B000F50001300A128A1125270A128A117508E1
:1002C00083120313B1007408B0007308AF00720802
:1002D000AE003E30AD00CC30AC00CC30AB00CD3009
:1002E000AA000A128A11E3230A128A118312031345
:1002F0002D08C7002C08C6002B08C5002A08C4001A
:100300000A128A157D200A128A11831203134508E6
:10031000E7004408E6006208F2006308F3000030DA
:10032000F31BFF30F400F50001300A128A11252773
:100330000A128A11750883120313B1007408B00001
:100340007308AF007208AE003D30AD00F530AC0070
:10035000C230AB008F30AA000A128A11E3230A12BE
:100360008A11831203132D08C7002C08C6002B081E
:10037000C5002A08C4000A128A157D200A128A11B3
:10038000831203134508E5004408E4006609D80019
:100390006709D900D80A0319D90A64085802DA0093
:1003A0006508031C650A5902DB0062085A078316B8
:1003B0000313C7008312031363080318630A5B0760
:1003C00083160313C80083120313121507151F3079
:1003D00083125F06031DED29EE29F2291211071180
:1003E0000530EE006A08D800D9015808F200590813
:1003F000F3003C30F4000030F5000A128A11DB27CC
:100400000A128A11831203136B087207E20000308C
:10041000031801307307E30008307A020318112A29
:10042000122A732A66086002D8006708031C670A4C
:100430006102D9006308803ADA005908803A5A020A
:10044000031D242A58086202031C272A282A342A5A
:10045000FB30F6009030F7008B30F8000A168A1156
:10046000E7250A128A11282B831203136609D80084
:100470006709D900D80A0319D90A64085802DA00B2
:100480006508031C650A5902DB0060085A07DC0096
:1004900061080318610A5B07DD006308803ADE002B
:1004A0005D08803A5E02031D572A5C086202031C45
:1004B0005A2A5B2A672A6E30F6009130F7008B309B
:1004C000F8000A168A11E7250A128A11282B6230D1
:1004D000F6009130F7008B30F8000A168A11E725F4
:1004E0000A128A11282B08307A06031D782A792AE5
:1004F0000B2B6208F2006308F3000030F31BFF309F
:10050000F400F50001300A128A1125270A128A1117
:10051000750883120313CF007408CE007308CD0052
:100520007208CC006008F2006108F3000030F31B91
:10053000FF30F400F50001300A128A1125270A1253
:100540008A11750883120313CB007408CA0073085C
:10055000C9007208C8006008F2006108F3000030AA
:10056000F31BFF30F400F50001300A128A11252731
:100570000A128A11750883120313B1007408B000BF
:100580007308AF007208AE003E30AD00CC30AC0056
:10059000CC30AB00CD30AA000A128A11E3230A1234
:1005A0008A11831203132D08C7002C08C6002B08DC
:1005B000C5002A08C4000A168A119A250A128A114F
:1005C000831203134708D3004608D2004508D10020
:1005D0004408D0000A128A15F3200A128A11031C5B
:1005E000F22AF32AFF2A6E30F6009130F7008B30A2
:1005F000F8000A168A11E7250A128A11282B6230A0
:10060000F6009130F7008B30F8000A168A11E725C2
:100610000A128A11282B09307A06031D102B112B80
:100620001D2B6E30F6009130F7008B30F8000A1663
:100630008A11E7250A128A11282BFB30F600903028
:10064000F7008B30F8000A168A11E7250A128A1182
:10065000C630F8000A30F2000030F30083120313B2
:100660006A08D800D9015808F4005908F5000A169C
:100670008A119B270A128A117208303E0A168A11C3
:100680002D250A128A11C730F8000A30F200003016
:10069000F300831203136A08D800D9015808F40044
:1006A0005908F5000A168A11E8260A128A117208FA
:1006B000303E0A168A112D250A128A11C830F80018
:1006C0003A300A168A112D250A128A11C930F8000B
:1006D0000A30F2000030F300831203136B08D800D5
:1006E000D9015808F4005908F5000A168A119B2709
:1006F0000A128A117208303E0A168A112D250A1232
:100700008A11CA30F8000A30F2000030F300831278
:1007100003136B08D800D9015808F4005908F500F4
:100720000A168A11E8260A128A117208303E0A1641
:100730008A112D250A128A11831203136B08031DD7
:10074000A22BA32BE22B6A08031DA72BA82BE22BBD
:100750001211071187140A168A110D250A128A111F
:100760006630F6009030F7008030F8000A168A11E3
:10077000E7250A128A118630F6009030F700C03063
:10078000F8000A168A11E7250A128A1133308312FB
:100790000313DA00BB30D900DF30D800D80BCE2BE2
:1007A000D90BCE2BDA0BCE2B83120313871001301B
:1007B000EE00103083160313C9000A168A110D25A6
:1007C0000A128A110800831203132D08B700803023
:1007D000B7052D08B2003207BD00AC1FF02BF12B7E
:1007E000F22B3D143D080319F62BF72B062C3D0A7E
:1007F000031DFB2BFC2B042C0030AD000030AC00A3
:100800000030AB000030AA00AC170E2C0030AD0059
:100810000030AC000030AB000030AA003108803955
:10082000B7063108B2003207B800B01F182C192CD7
:100830001A2C3814380803191E2C1F2C2E2C380A99
:10084000031D232C242C2C2C0030B1000030B000D0
:100850000030AF000030AE00B017362C0030B100D1
:100860000030B0000030AF000030AE00380803198F
:100870003A2C3B2C402C3D08031D3F2C402C492C8E
:100880000030AD000030AC000030AB000030AA00FA
:10089000242F2A08F20030080A168A11BE250A12EF
:1008A0008A11730883120313C3007208C20042083E
:1008B000B200B301B401B5013508BC003408BB0077
:1008C0003308BA003208B9004308B200B301B401DA
:1008D000B5013508C1003408C0003308BF00320834
:1008E000BE002B08F2002F080A168A11BE250A1234
:1008F0008A11730883120313C3007208C2004208EE
:10090000B200B301B401B5013208B90733080311CD
:100910000318013E03198D2CBA073408031103187C
:10092000013E0319942CBB07350803110318013E3F
:1009300003199B2CBC074308B200B301B401B501F5
:100940003208BE07330803110318013E0319A92C0E
:10095000BF07340803110318013E0319B02CC00768
:10096000350803110318013E0319B72CC1072C08E1
:10097000F2002E080A168A11BE250A128A1173087F
:1009800083120313C3007208C2004208B200B3010D
:10099000B401B5013208B907330803110318013E49
:1009A0000319D32CBA07340803110318013E0319A5
:1009B000DA2CBB07350803110318013E0319E12C9B
:1009C000BC074308B200B301B401B5013208BE0749
:1009D000330803110318013E0319EF2CBF07340835
:1009E00003110318013E0319F62CC0073508031143
:1009F0000318013E0319FD2CC1070830B200031093
:100A0000B90DBA0DBB0DBC0DB20BFF2C2B08F200BB
:100A10002E080A168A11BE250A128A11730883123B
:100A20000313C3007208C2004208B2004308B300B7
:100A3000B401B5013208B907330803110318013EA8
:100A40000319232DBA07340803110318013E0319B3
:100A50002A2DBB07350803110318013E0319312D58
:100A6000BC072A08F2002F080A168A11BE250A12AE
:100A70008A11730883120313C3007208C20042086C
:100A8000B2004308B300B401B5013208B907330816
:100A900003110318013E03194E2DBA073408031140
:100AA0000318013E0319552DBB0735080311031820
:100AB000013E03195C2DBC070830B2000310B90DCC
:100AC000BA0DBB0DBC0DB20B5E2D2A08F2002E082C
:100AD0000A168A11BE250A128A117308831203139B
:100AE000C3007208C2004208B2004308B300B40158
:100AF000B5013208B907330803110318013E031981
:100B0000822DBA07340803110318013E0319892DF9
:100B1000BB07350803110318013E0319902DBC07CC
:100B20002B08F20030080A168A11BE250A128A1113
:100B3000730883120313C3007208C2004208B20094
:100B40004308B300B401B5013208BE0733080311EE
:100B50000318013E0319AD2DBF0734080311031814
:100B6000013E0319B42DC007350803110318013ED7
:100B70000319BB2DC1072C08F2002F080A168A1191
:100B8000BE250A128A11730883120313C300720868
:100B9000C2004208B2004308B300B401B5013208F4
:100BA000BE07330803110318013E0319D82DBF07F0
:100BB000340803110318013E0319DF2DC00735085F
:100BC00003110318013E0319E62DC1072C08F2009A
:100BD00030080A168A11BE250A128A117308831278
:100BE0000313C3007208C2004208B2004308B300F6
:100BF000B401B50108300310B20DB30DB40DB50D3D
:100C0000FF3E031DFB2D3208BE07330803110318F6
:100C1000013E03190C2EBF07340803110318013ECF
:100C20000319132EC007350803110318013E0319D9
:100C30001A2EC1073908B2003A08B3003B08B400C5
:100C40003C08B50018300310B50CB40CB30CB20C52
:100C5000FF3E031D232E3208BE073308031103187D
:100C6000013E0319342EBF07340803110318013E57
:100C700003193B2EC007350803110318013E031961
:100C8000422EC1070830B2000310B90DBA0DBB0DDA
:100C9000BC0DB20B442E3D083807B200B301B30DB2
:100CA0003208823EC20033080318013EFF3EC300F3
:100CB000762E0130B2000310BE0DBF0DC00DC10D68
:100CC000B20B5B2EBC1F652E662E672E3E140130C4
:100CD000B2000310B90DBA0DBB0DBC0DB20B692EDD
:100CE000FF30C2070318C30AFF30C307C01F792EA5
:100CF0007A2E592EB801BC1F7E2E7F2E9B2EFF30E0
:100D00003905B200FF303A05B300FF303B05B400AF
:100D10007F303C05B5003508340433043204031930
:100D2000922E932E962E0130B8009B2E3E1C992EAB
:100D30009A2E9B2E932E380803199F2EA02ED12E6B
:100D40000130BE07003003180130BF070030031820
:100D50000130C007003003180130C107411CB12E1B
:100D6000B22ED12E3E08B2003F08B3004008B400B6
:100D70004108B5000130B600350DB50CB40CB30C0C
:100D8000B20CB60BBC2E3508C1003408C0003308C5
:100D9000BF003208BE000130C2070318C30A00308A
:100DA000C3074308803AFF0080307F02031DDA2E1C
:100DB000FF304202031CDD2EDE2EE92E7F3083122F
:100DC0000313C1008030C0000030BF000030BE00FF
:100DD0001A2F831203134308803AFF0080307F02EA
:100DE000031DF42E013042020318F72EF82E042FB3
:100DF000003083120313C1000030C0000030BF0078
:100E00000030BE00B7011A2F831203134208BD0041
:100E1000FF30BE05FF30BF057F30C0050030C10583
:100E20003D1C132F142F152FC0173D08B2000310BF
:100E3000320CC1003708C1044108AD004008AC00C5
:100E40003F08AB003E08AA00080083120313A40069
:100E5000240803192C2F2D2F412FF51F302F312F50
:100E6000412F7209A6007309A7007409A80075092B
:100E7000A900A60A0319A70A0319A80A0319A90AAF
:100E8000492F7508A9007408A8007308A700720804
:100E9000A6007508740473047204031D502F512FAB
:100EA0005A2F0030F5000030F4000030F30000301D
:100EB000F200DA2F9630A500682F0130A507013027
:100EC0000310A90CA80CA70CA60CFF3E031D602F55
:100ED000FE302905031D6D2F6E2F5D2F882F0130E9
:100EE000A5070130A607003003180130A70700301E
:100EF00003180130A807003003180130A90701309A
:100F00000310A90CA80CA70CA60CFF3E031D802FF4
:100F1000FF302905031D8D2F8E2F6F2F9A2F013043
:100F2000A5020130A0000310A60DA70DA80DA90D64
:100F3000A00B932FA81B9D2F9E2FA42F02302502BC
:100F40000318A32FA42F8F2F2518A72FA82FB02F5A
:100F5000FF30A605FF30A7057F30A805FF30A905A3
:100F60000310A50C2508A000A101A201A3011830BF
:100F70000310A00DA10DA20DA30DFF3E031DB82F60
:100F80002008A6042108A7042208A8042308A9040D
:100F900024080319CC2FCD2FD22FF51FD02FD12FFE
:100FA000D22FA9172908F5002808F4002708F30014
:100FB0002608F2000800F601F701721CE02FE12F6D
:100FC000E72F7408F6070318F70A7508F7070130CA
:100FD0000310F40DF50DFF3E031DE82F0130031043
:100FE000F30CF20CFF3E031DEF2F72087304031D78
:100FF000FA2FFB2FDD2F7708F3007608F2000800A8
:101002008316031306083F38860008008312031371
:10101200A8012808803EF800FF300A168A112D2503
:101022000A128A15033083120313A7008A30A6001E
:101032005530A500A50B1B28A60B1B28A70B1B28A8
:10104200013083120313A80710302802031C2A2838
:101052002B280A281130F6009030F700C030F80033
:101062000A168A11E7250A128A153330F6009030E3
:10107200F7009030F8000A168A11E7250A128A153D
:10108200103083120313A9002908D03EF800FF3064
:101092000A168A112D250A128A15033083120313A8
:1010A200A7008A30A6005530A500A50B5628A60B2E
:1010B2005628A70B5628013083120313A9022908C8
:1010C200031D642865284528D030F800FF300A1631
:1010D2008A112D250A128A150D3083120313A700D7
:1010E200AF30A600B530A500A50B7528A60B752854
:1010F200A70B75287C280800031083120313460DE2
:10110200470DF7007708031D8728882891280030AB
:10111200C7000030C6000030C5000030C400F2280D
:101122004408C8004508C9004608CA004708CB0061
:101132001F300310CB0CCA0CC90CC80CFF3E031D98
:101142009A284808F600C617FF30C405FF30C505C7
:10115200FF30C6050030C7059630F702F71FB228E8
:10116200B328CB287708803A973E0318B928BA28C3
:10117200BB28882801300310C70CC60CC50CC40C50
:10118200FF3E031DBC280130F707031DC928CA28EA
:10119200BB28E22820307702031CD028D128DD2882
:1011A20088280130C8000310C40DC50DC60DC70D37
:1011B200C80BD4280130F7027708031DE128E22882
:1011C200D22876080319E628E728F228C409C509B7
:1011D200C609C709C40A0319C50A0319C60A0319AD
:1011E200C70A08000030831203134C05D4000030F4
:1011F2004D05D50080304E05D6007F304F05D70013
:101202005708560455045404031D082909291129B5
:101212000030CF000030CE000030CD000030CC00D6
:1012220000305005D40000305105D5008030520501
:10123200D6007F305305D70057085604550454048E
:10124200031D242925292D290030D3000030D20086
:101252000030D1000030D000CF1F3029312955296C
:101262000030D4000030D5000030D6008030D700E6
:101272004C08D4024D08031C4D0F40294129D502C8
:101282004E08031C4E0F46294729D6024F08031C5D
:101292004F0F4C294D29D7025708CF005608CE00D0
:1012A2005508CD005408CC00D31F582959297D294F
:1012B2000030D4000030D5000030D6008030D70096
:1012C2005008D4025108031C510F68296929D5021C
:1012D2005208031C520F6E296F29D6025308031CB1
:1012E200530F74297529D7025708D3005608D20024
:1012F2005508D1005408D0008030CF068030D30684
:1013020053084F02031D8F2952084E02031D8F29D5
:1013120051084D02031D8F2950084C0203189229CF
:1013220093299529031096290314080083120313A5
:10133200A7001030831603134906031DA129A22911
:10134200A8290A168A110D250A128A15FA013730C0
:10135200831203132706031DAF29B029BE290130CA
:10136200FA070C307A06031DB729B829B929FA0100
:101372000A168A110D250A128A157630F600903067
:10138200F7008030F8000A168A11E7250A128A153A
:10139200C030F8003E300A168A112D250A128A152D
:1013A2000A307A020318D629D729172A7A08831213
:1013B2000313A5002507A03E840083130008F6004E
:1013C200840A00088403F700C230F8000A168A1162
:1013D200E7250A128A157A0883120313A500250746
:1013E200A23E840083130008F600840A00088403E6
:1013F200F7009230F8000A168A11E7250A128A15B8
:101402007A0883120313A5002507A43E84008313E0
:101412000008F600840A00088403F700D230F800BE
:101422000A168A11E7250A128A158A2A0A307A06CA
:10143200031D1C2A1D2A552A7A0883120313A500AC
:101442002507A03E840083130008F600840A0008E2
:101452008403F700C230F8000A168A11E7250A123F
:101462008A157A0883120313A5002507A23E840079
:1014720083130008F600840A00088403F700923000
:10148200F8000A168A11E7250A128A158316031331
:101492002008F6002108F700D230F8000A168A1157
:1014A200E7250A128A158A2A0B307A06031D5A2A60
:1014B2005B2A8A2A7A0883120313A5002507A03E15
:1014C200840083130008F600840A00088403F700EE
:1014D200C230F8000A168A11E7250A128A15831605
:1014E20003132008F6002108F7009230F8000A16CC
:1014F2008A11E7250A128A15831603132208F600B9
:101502002308F700D230F8000A168A11E7250A12DA
:101512008A15080083120313A700113083160313E0
:101522004906031D952A962A9C2AF9010A168A1150
:101532000D250A128A153730831203132706031D5D
:10154200A32AA42AB22A0130F90705307906031D1D
:10155200AB2AAC2AAD2AF9010A168A110D250A1204
:101562008A15D330F6009030F7008030F8000A1662
:101572008A11E7250A128A15C030F8003E300A1691
:101582008A112D250A128A15033079020318CA2AF4
:10159200CB2A0B2B790883120313A5002507B83E2B
:1015A200840083130008F600840A00088403F7000D
:1015B200C230F8000A168A11E7250A128A1579083C
:1015C20083120313A5002507BA3E84008313000883
:1015D200F600840A00088403F7009230F8000A1625
:1015E2008A11E7250A128A15790883120313A500C6
:1015F2002507BC3E840083130008F600840A000815
:101602008403F700D230F8000A168A11E7250A127D
:101612008A157E2B03307906031D102B112B492BC3
:10162200790883120313A5002507B83E84008313AB
:101632000008F600840A00088403F700C230F800AC
:101642000A168A11E7250A128A15790883120313EA
:10165200A5002507BA3E840083130008F600840A19
:1016620000088403F7009230F8000A168A11E72571
:101672000A128A15831603133808F6003908F70090
:10168200D230F8000A168A11E7250A128A157E2B33
:1016920004307906031D4E2B4F2B7E2B79088312C3
:1016A2000313A5002507B83E840083130008F60043
:1016B200840A00088403F700C230F8000A168A116F
:1016C200E7250A128A15831603133808F60039082B
:1016D200F7009230F8000A168A11E7250A128A15D5
:1016E200831603133A08F6003B08F700D230F800DD
:1016F2000A168A11E7250A128A150800532C21308E
:1017020083120313EB00EA01792C293083120313AD
:10171200EB00842B2D3083120313EB00842B79080A
:10172200003A0319862B013A0319802B033A031955
:10173200862B013A03198B2B073A03198B2B792C31
:101742002B3083120313EB00EA01323083120313AE
:10175200EB00EA01792C393083120313EB00842B5E
:101762007908003A0319A62B013A0319A12B033A6F
:101772000319A62B013A0319AC2B073A0319AC2B18
:10178200792C1A3083120313EB00842B1F3083123F
:101792000313EB00842B7908003A0319C22B013A98
:1017A2000319C22B033A0319C22B013A0319C72B9F
:1017B200073A0319C72B792C103083120313EB005D
:1017C2000130EA00792C243083120313EB0001303C
:1017D200EA001C3083120313EB00842B1D308312AA
:1017E2000313EB00792C2E3083120313EB00EA0172
:1017F200353083120313EB00EA01792C3C3083125B
:101802000313EB00842B7908003A0319F92B013AF0
:101812000319F42B033A0319F92B013A0319FF2B8D
:10182200073A0319FF2B792C123083120313EB00B2
:10183200EA011B2C143083120313EB00EA01792C0A
:101842007908003A03191B2C013A0319152C033AA3
:1018520003191B2C013A03191B2C073A03191B2CE1
:10186200792C063083120313EB00792C103083128B
:101872000313EB00EA01153083120313EB00EA01B4
:10188200792C7908003A03193C2C013A0319372CB8
:10189200033A03193C2C013A0319C22B073A0319E4
:1018A200C22B792C7A08003A0319902B013A0319BA
:1018B200B12B033A0319CC2B013A0319DD2B073A5A
:1018C2000319E42B013A0319EA2B033A0319EF2B0C
:1018D200013A0319042C0F3A0319212C013A031976
:1018E200322C033A0319422C013A0319422C792C67
:1018F2000800013083120313EE0010308316031325
:10190200C9000A168A1142250A128A152230F600E7
:101912009030F7008030F8000A168A11E7250A1283
:101922008A150030F6009030F700C030F8000A1631
:101932008A11E7250A128A155530F6009030F70011
:101942009030F8000A168A11E7250A128A15BD2C72
:10195200B83083160313C2000B30C300FF30C20736
:101962000318C30AFF30C307420A031DBC2C430AF3
:10197200031DBC2CBD2CAF2C01300A168A113F2747
:101982000A128A152F3A031DC72CC82CA92C0A1635
:101992008A110D250A128A150A128A1507200A12BF
:1019A2008A1501300A168A113F270A128A158316F0
:1019B2000313C600B830C4000B30C500FF30C407A3
:1019C2000318C50AFF30C507440A031DEC2C450A5B
:1019D200031DEC2CED2CDF2CB7304606031DF22C38
:1019E200F32C012D831203136E03031DF92CFA2C21
:1019F200012D0230EE00113083160313C900922D1F
:101A0200B730831603134606031D082D092D412DF9
:101A12000230831203136E06031D102D112D412D6A
:101A22000A128A157F230A128A150A168A110D25AF
:101A32000A128A15AE30F6009030F7008030F800B6
:101A42000A168A11E7250A128A159430F600903098
:101A5200F700C030F8000A168A11E7250A128A1523
:101A6200BB30F6009030F7009030F8000A168A1169
:101A7200E7250A128A15033083120313EE00922D12
:101A82002F30831603134606031D482D492D562D6C
:101A92000530831203136E06031D502D512D562D52
:101AA200121507150430EE00922D922D83160313A2
:101AB20046080A128A1597210A128A15A12D831641
:101AC200031346080A128A158B220A128A15A12DBF
:101AD2002F30831603134606031D702D712D7A2DA8
:101AE200043083120313EE00123083160313C9006D
:101AF200D22C1F304606031D7F2D802DA12D0130D3
:101B020083120313EE00103083160313C900D22C84
:101B12008316031346080A128A113D200A128A15F7
:101B2200A12D83126E08013A0319572D033A0319A6
:101B3200602D013A0319692D073A0319892DA12D48
:101B420083160313C901D22C0A128A110C2883129C
:101B520003132308F2008030F2052308A8002807A7
:101B6200F400A21FB52DB62DB72D741474080319F5
:101B7200BB2DBC2DCC2D740A031DC02DC12DC92D2A
:101B82000030A3000030A2000030A1000030A0000D
:101B9200A217A301D42D0030A3000030A200003010
:101BA200A1000030A0002708F3008030F30573087D
:101BB20072060319DD2DDE2DDF2D72172708A8000E
:101BC2002807F300A61FE62DE72DE82D73147308EE
:101BD2000319EC2DED2DFD2D730A031DF12DF22DB0
:101BE200FA2D0030A7000030A6000030A50000301A
:101BF200A400A617A701052E0030A7000030A600FA
:101C02000030A5000030A4007408730203180A2EE5
:101C12000B2E2F2E721F0E2E0F2E112E8030F2063B
:101C22007408F5007308F4007508F3002008F50045
:101C32002408A0007508A4002108F5002508A100C9
:101C42007508A5002208F5002608A2007508A6005E
:101C52002308F5002708A3007508A700F5017308FB
:101C6200A800A9012908AB0074082802AA00031CD5
:101C7200AB032B08803AFF0080307F02031D432E06
:101C82001A302A02031C462E472E802E831203137B
:101C92002308220421042004031D502E522E013059
:101CA200532E0030F5000030A3000030A2000030B7
:101CB200A1000030A0007308F400862E751C622E6D
:101CC200632E6C2E750883120313A8000310280CD0
:101CD2000138F5006E2E0310F50C83120313201C3D
:101CE200732E742E752EF5170130A800230DA30C48
:101CF200A20CA10CA00CA80B772E0130F4077308DC
:101D02007402031C852E862E5F2E721B892E8A2E4C
:101D1200D52E7408031D8E2E8F2E9A2E003083121C
:101D22000313A3000030A2000030A1000030A00085
:101D3200FF2F831203132408A00725080311031899
:101D4200013E0319A52EA107260803110318013E1F
:101D52000319AC2EA207270803110318013E031929
:101D6200B32EA307231CB62EB72E8B2F751CBA2EAB
:101D7200BB2EC22E7508A8000310280C0138F500EE
:101D8200C42E0310F50C201CC72EC82EC92EF51721
:101D92000130A800230DA30CA20CA10CA00CA80BCF
:101DA200CB2E0130F4078B2F831203132308803AC2
:101DB200FF002708803A7F02031DE92E260822022F
:101DC200031DE92E25082102031DE92E2408200205
:101DD2000318EC2EED2E442FFF30A800FF30A9008F
:101DE200FF30AA00FF30AB002408AC002508AD008C
:101DF2002608AE002708AF002008AC022108031C09
:101E0200210F042F052FAD022208031C220F0A2FD7
:101E12000B2FAE022308031C230F102F112FAF022A
:101E22002C08A8072D0803182D0F182F192FA90702
:101E32002E0803182E0F1E2F1F2FAA072F08031874
:101E42002F0AAB072B08A3002A08A2002908A10029
:101E52002808A0008030F2067503FF3AF5007508E5
:101E6200031D342F352F522F0130A00700300318E5
:101E72000130A107003003180130A2070030031817
:101E82000130A307522F2408A0022508031C250FA6
:101E9200A1022608031C260FA2022708031C270FF3
:101EA200A3022308220421042004031D592F5A2FC0
:101EB200872F7508031D5E2F5F2F872F0030A30029
:101EC2000030A2000030A1000030A000FF2F01303E
:101ED200A8000310A00DA10DA20DA30DA80B6A2F3F
:101EE200F51F742F752F762F2014751C792F7A2FDA
:101EF2007E2F0314750DF500802F0310F50D740865
:101F02000319842F852F872F0130F402A21F8A2FF5
:101F12008B2F682FF301F51F8F2F902F9E2F75089F
:101F22007F390319952F962F992F0130F3009E2F99
:101F3200201C9C2F9D2F9E2F962F73080319A22FD2
:101F4200A32FD52F0130A007003003180130A107BD
:101F5200003003180130A207003003180130A30734
:101F6200231CB42FB52FD52F2008A8002108A900C3
:101F72002208AA002308AB000130AC002B0DAB0CE9
:101F8200AA0CA90CA80CAC0BBF2F2B08A3002A0883
:101F9200A2002908A1002808A000740A0319D22F60
:101FA200D32FD52F0130F407740A0319D92FDA2F52
:101FB200DF2F7408031DDE2FDF2FED2F0030A3006B
:101FC2000030A2000030A1000030A0007408031D00
:101FD200EB2FEC2FED2FF201741CF02FF12FF32FCA
:101FE200A217F52F7F30A2057408A8000310280C51
:101FF200A300F21FFD2FFE2FFF2FA317080020348E
:1020020020342034203450346F34773465347234C1
:1020120020344F344E3420342034203420340034E1
:102022002034203450344F345734453452344934F8
:102032004E34473420344F344E342034203420344C
:1020420000342034503472346534733473342034A1
:102052004B34653479343534203454346F3420347D
:102062002034003420345734413453344834493412
:102072004E34473420344D344134433448344934A7
:102082004E344534003435342D34533454344134D1
:10209200523454342034203436342D3450344134C4
:1020A2005534533445340034203457346134733456
:1020B200683469346E34673420344D3461346334A7
:1020C200683469346E3465340034503472346F3499
:1020D20067342E34203443346F346D3470346C34AE
:1020E2006534743465346434003457346134733481
:1020F200683469346E3467342034503472346F3447
:102102006734723461346D340034523465346D3462
:102112006F3476346534203443346C346F34743421
:1021220068347334003420345334573435343A34F9
:10213200203453345434413452345434203400342F
:1021420050346C3465346134733465342034433430
:102152006C346F3473346534003450347234653403
:1021620073347334203453347734693474346334BD
:102172006834003420345334573436343A342034FB
:10218200533454344F3450342034003444344F34B4
:102192004F34523420343A3420344F34503445349E
:1021A2004E3400345734613474346534723420341C
:1021B2004C346534763465346C34003446347534CA
:1021C2006E346334743469346F346E3420342D3495
:1021D20000344134713475346134203473347434CE
:1021E2006F34723465340034533474346134693476
:1021F2006E342034573461347334683400344534D7
:1022020063346F3443346F34743474346F346E34E3
:1022120073340034443465346C3469346334613467
:102222007434653473340034423465346434533462
:10223200683465346534743473340034573461342B
:102242007334683420344F346E346C34793400344F
:10225200523469346E34733465342B3444347234FA
:102262007934003457346F346F346C346C346534E1
:102272006E347334003444347234793420346F341D
:102282006E346C347934003428344D344D343A345D
:102292005334533429340034503472346F34673435
:1022A2003A34203400344D3465346434693475343E
:1022B2006D3400345734683469347434653473349B
:1022C20000345334703469346E342034003454345E
:1022D20069346D3465343A340034523469346E34BE
:1022E2007334653400344434613469346C34793481
:1022F20000344834653461347634793400345434EB
:1023020049344D34453400344834693467346834D0
:1023120000344134753474346F3400344C346F34C7
:10232200773400344D34613478340034FF1BA129F2
:1023320083137F1883170008840A0319FF0A080011
:102342007F087F398A000408840A0319FF0A820081
:1029EA00831603138801091189100A168A114B26C6
:1029FA000A168A1108008312031312149214FA3069
:102A0A008316031392008C14831203131211080005
:102A1A00F20101300A168A1158250A168A11A630BF
:102A2A00F600F60B162D000008007E088A007F08C3
:102A3A0082000A168A111A250A168A118000840A47
:102A4A0004087D0603190034FF0A0319FE0A1E2D25
:102A5A0083120313A400F20178080A168A11582572
:102A6A000A168A11F201F20A8312031324080A16BB
:102A7A008A1158250A168A1108000A168A11F5249D
:102A8A000A168A110A128A1501200A168A110A16CA
:102A9A008A1100250A168A11831603130711871053
:102AAA000B178B170800F50072185C2D602D831226
:102ABA0003130915632D831203130911750888007E
:102ACA008914A630F300F30B682D00008312031358
:102ADA0089101B30F4009E30F300F30B722DF40BB7
:102AEA00722D00000800743491347A3491340B3416
:102AFA0091345B349134F534903400349134333466
:102B0A00913415349134293491343C3491341F343E
:102B1A009134EA3490348A3491348F349134543471
:102B2A009134853491349334913480308312031371
:102B3A00C7064B08A3004A08A2004908A100480892
:102B4A00A0004708A7004608A6004508A5004408B3
:102B5A00A4000A128A15A8250A168A1183120313D9
:102B6A002308C7002208C6002108C5002008C4009F
:102B7A00080083120313A400A001A1017208F40043
:102B8A00F5017408A2007508A300241CCD2DCE2DD2
:102B9A00D42D2208A0070318A10A2308A10701308F
:102BAA000310A20DA30DFF3E031DD52D0310A40C87
:102BBA002408031DE12DE22DCA2D2108F300200867
:102BCA00F2000800F20178080A168A1158250A1636
:102BDA008A11052EF201F20A7708FF0076088400AE
:102BEA000A168A1197210A168A110A168A11582575
:102BFA000A168A110130F6070318F70A0030F70798
:102C0A00770883120313FF00760884000A168A11D4
:102C1A0097210A168A11003A031D142E152EEF2D3C
:102C2A000800831203138C1C1B2E1C2E442E013009
:102C3A00E8070318E90A0030E907E23068060430B9
:102C4A0003196906031D2A2E2B2E432EE801E901DA
:102C5A006B080319312E322E352E0130EB02432E2A
:102C6A006B08031D392E3A2E432E6A0803193E2E8D
:102C7A003F2E432E0130EA023B30EB008C107108E4
:102C8A008A00700E8300FE0E7E0E0900C330F70024
:102C9A00CD30F600F60B4F2EF70B4F2EF2013330E4
:102CAA000A168A1158250A168A111B30F7009E3017
:102CBA00F600F60B5E2EF70B5E2E0000F2013330A3
:102CCA000A168A1158250A168A11A630F600F60B3A
:102CDA006C2E0000F20133300A168A1158250A16A2
:102CEA008A11772E782E0000F20101300A168A1115
:102CFA0058250A168A11A630F600F60B822E000015
:102D0A00F2010C300A168A1158250A168A11A630C1
:102D1A00F600F60B8E2E0000080083120313061825
:102D2A00972E982EE72E8714071112110A168A1168
:102D3A000D250A168A11C730F6009030F700803048
:102D4A00F8000A168A11E7250A168A11A130F60038
:102D5A009030F7009030F8000A168A11E7250A1613
:102D6A008A1183120313061CBB2EBC2EB62E0A161A
:102D7A008A110D250A168A118312031307151215D3
:102D8A008710DF30F6009030F7008030F8000A161E
:102D9A008A11E7250A168A118030F6009130F70069
:102DAA00C030F8000A168A11E7250A168A1144303B
:102DBA00F6009030F700D030F8000A168A11E7259D
:102DCA000A168A110800F701F51FEC2EED2EF42ED3
:102DDA00F409F509F40A0319F50A0130F700F31F9B
:102DEA00F72EF82EFD2EF209F309F20A0319F30A57
:102DFA00720873040319022F032F302F0130F600D3
:102E0A000F2F01300310F20DF30DFF3E031D072FA4
:102E1A000130F607F31F122F132F062F73087502BE
:102E2A00031D192F72087402031C1C2F1D2F232F38
:102E3A007208F4027308031CF503F502013003104B
:102E4A00F30CF20CFF3E031D242F0130F602031D82
:102E5A002F2F302F132F77080319342F352F3A2F9E
:102E6A00F409F509F40A0319F50A7508F300740858
:102E7A00F2000800F3007308031D442F452F4A2F60
:102E8A008312031306083F399A2F3F308312031324
:102E9A000605F2003F3072060319542F552F612F91
:102EAA007B080319592F5A2F612FFB01EC010608E1
:102EBA00ED003F30ED05992F7B08031D652F662F26
:102ECA00762F06083F396D06031D6C2F6D2F762F5E
:102EDA001E306C020318722F732F762F0130EC0705
:102EEA00992F1E306C06031D7B2F7C2F812F0130FA
:102EFA00EC076D0880389A2F3F300605F2003F3004
:102F0A007206031D892F8A2F992F7B08031D8E2F86
:102F1A008F2F992F0130FB001E306C020318962F59
:102F2A00972F992F6D089A2F3F30080083120313A9
:102F3A00A101F31FA12FA22FA92FF209F309F20A67
:102F4A000319F30A0130A100F51FAC2FAD2FB42FDE
:102F5A00F409F509F40A0319F50A0130A106A201D8
:102F6A00A301720873040319BB2FBC2FF12F013080
:102F7A00A000C82F01300310F20DF30DFF3E031D10
:102F8A00C02F0130A007F31FCB2FCC2FBF2F01304A
:102F9A000310A20DA30DFF3E031DCD2F730875026A
:102FAA00031DD92F72087402031CDC2FDD2FE42FB6
:102FBA007208F4027308031CF503F50222140130A7
:102FCA000310F30CF20CFF3E031DE52F0130A002A3
:102FDA00031DF02FF12FCC2F21080319F52FF62FFF
:102FEA00FB2FA209A309A20A0319A30A2308F300C3
:062FFA002208F2000800AD
:02400E00FB3F76
:00000001FF
