:100000000C942E000C94E7020C94E7020C94E70287
:100010000C94E7020C94E7020C94E7020C94E702BC
:100020000C94E7020C94E7020C94E7020C94E702AC
:100030000C94E7020C94E7020C9458000C94E7022D
:100040000C94E7020C94E7020C94E7020C94E7028C
:100050000C94E7020060009D0005DC0011241FBE27
:10006000CFE5D4E0DEBFCDBFE4E5F0E040E017C06F
:10007000B591A59135912591059107FD0CC09591FC
:100080008591EF01F92FE82F05900D92A217B30784
:10009000D9F7FE0104C01D92A217B307E1F7EB35B3
:1000A000F40731F70E94D1010C94AE02F894FFCF0F
:1000B0001F920F920FB60F921124CF92DF92EF9200
:1000C000FF922F933F934F935F936F937F938F9301
:1000D0009F93AF93BF93CF93EF93FF9384B165B199
:1000E00094E0699F90011124682F70E00024660F4E
:1000F000771F001C660F771F001C672F702D622B67
:10010000732B80E090E00E94650120E030E040EA3F
:1001100050E40E94E00220E030E040E85AE30E9410
:10012000E00220E030E048EC52E40E94E0026B0183
:100130007C0180E80E94A00280E690E00E9491028B
:10014000C701B6010E94B902CB016AE070E00E94CB
:100150005802C82F80E3860F0E94440280E38C0F70
:100160000E9444028FED0E94440283E40E944402F4
:1001700020E030E040E252E4C701B6010E94DB0219
:10018000882394F080EC0E94A0028AE690E00E940E
:100190009102909A2FEF81E19AE7215080409040A0
:1001A000E1F700C0000008C080EC0E94A0028EE7CA
:1001B00090E00E94910290982FEF84E39CE0215000
:1001C00080409040E1F700C00000FF91EF91CF9197
:1001D000BF91AF919F918F917F916F915F914F915F
:1001E0003F912F91FF90EF90DF90CF900F900FBE37
:0601F0000F901F9018950E
:1001F6000FC00E94C70238F00E94CE0220F095235D
:1002060011F00C94D5020C94E40211240C94C10252
:100216000E94220270F3959FC1F3950F50E0551F7F
:10022600629FF001729FBB27F00DB11D639FAA2745
:10023600F00DB11DAA1F649F6627B00DA11D661F94
:10024600829F2227B00DA11D621F739FB00DA11DB5
:10025600621F839FA00D611D221F749F3327A00D6F
:10026600611D231F849F600D211D822F762F6A2F0B
:1002760011249F5750409AF0F1F088234AF0EE0F70
:10028600FF1FBB1F661F771F881F91505040A9F79D
:100296009E3F510580F00C94D5020C94C1025F3F3D
:1002A600E4F3983ED4F3869577956795B795F795D9
:1002B600E7959F5FC1F7FE2B880F911D9695879551
:0402C60097F9089507
:1002CA00E89409C097FB3EF49095809570956195E6
:1002DA007F4F8F4F9F4F9923A9F0F92F96E9BB279C
:1002EA009395F695879577956795B795F111F8CF18
:1002FA00FAF4BB0F11F460FF1BC06F5F7F4F8F4F83
:10030A009F4F16C0882311F096E911C0772321F078
:10031A009EE8872F762F05C0662371F096E8862F10
:10032A0070E060E02AF09A95660F771F881FDAF767
:0A033A00880F9695879597F90895AE
:100344000E942A0288F09F5798F0B92F9927B75135
:10035400B0F0E1F0660F771F881F991F1AF0BA9565
:10036400C9F714C0B13091F00E94C002B1E0089501
:100374000C94C002672F782F8827B85F39F0B93FF3
:10038400CCF3869577956795B395D9F73EF4909518
:0E0394008095709561957F4F8F4F9F4F089514
:1003A2001ABA8FEF87BB81BB88E30E94A0028CE060
:1003B2000E94A00281E00E94A00280E80E94A002A6
:1003C20080E990E00E9491022FEF81EE94E02150AB
:1003D20080409040E1F700C0000080E687B988ECD9
:1003E20086B97894369A2FEF84E39CE021508040BE
:0A03F2009040E1F700C00000F5CFD5
:1003FC00990F0008550FAA0BE0E8FEEF161617062A
:10040C00E807F907C0F012161306E407F50798F091
:10041C00621B730B840B950B39F40A2661F0232BAA
:10042C00242B252B21F408950A2609F4A140A69526
:08043C008FEF811D811D089561
:1004440057FD9058440F551F59F05F3F71F0479581
:10045400880F97FB991F61F09F3F79F08795089566
:10046400121613061406551FF2CF4695F1DF08C085
:10047400161617061806991FF1CF869571056105A2
:04048400089408953B
:1004880088BB82B3806A82BB2FE788E391E0215062
:1004980080409040E1F700C0000082B38F7C82BBAF
:0804A80082B3807882BB089545
:1004B00097FB072E16F4009407D077FD09D00E9411
:1004C0006C0207FC05D03EF4909581959F4F0895EE
:0804D000709561957F4F0895BE
:1004D800AA1BBB1B51E107C0AA1FBB1FA617B70762
:1004E80010F0A61BB70B881F991F5A95A9F780957E
:0804F8009095BC01CD010895AF
:10050000092E0394000C11F4882352F0BB0F40F421
:10051000BF2B11F460FF04C06F5F7F4F8F4F9F4F61
:0205200008953C
:10052200CF93DF93EC018881882331F021960E94DA
:0E053200440289918111FBCFDF91CF91089592
:1005400088BB959A2FE788E391E021508040904046
:0C055000E1F700C0000082B312BA089569
:10055C00EC010E94EC020E94EB02CE010E94ED0223
:06056C00CE010E94E9022D
:0E0572000E94A2016894B1110C94C102089578
:0E058000E894BB2766277727CB0197F90895EB
:0E058E0000240A94161617061806090608958A
:0E059C0000240A94121613061406050608958C
:0C05AA0097F99F6780E870E060E008951A
:0A05B6000E94FE0108F48FEF089583
:0805C0000E94FB000C94800274
:0605C8009FEF80EC089596
:0405CE000C94000089
:0405D2000E9456002D
:0205D600089586
:0205D800089584
:0205DA00089582
:1005DC0054656D703A2020202000414C4552542027
:1005EC00486967682054656D7021202020004E6F8B
:1005FC00726D616C202020202020202020202000E3
:0D060C0054656D70204D6F6E69746F720043
:00000001FF
